:100000000C9495000C9483150C9483150C94831513
:100010000C9483150C9483150C9483150C94831500
:100020000C9483150C9483150C9483150C948315F0
:100030000C9483150C9483150C9483150C948315E0
:100040000C9483150C9483150C9483150C948315D0
:100050000C9483150C9483150C9483150C948315C0
:100060000C9483150C9483150C9483150C948315B0
:100070000C9483150C9483150C9483150C948315A0
:100080000C9480150C9483150C9483150C94831593
:100090000C9483150C9483150C9483150C94831580
:1000A0000C9483150C9483150C9483150C94831570
:1000B0000C9483150C9483150C9483150C94831560
:1000C0000C9483150C9483150C9483150C94831550
:1000D0000C9483150C9483150C9483150C94831540
:1000E0000C94831502001A4F801A4F1A57002B0ADE
:1000F0001A571A5D801A5D1A61002B121A611A676D
:10010000801A671A69002B161A691A8180000C94EC
:100110008D000C94CF120C94C510C7E0DAE18881F1
:100120008230F0F30E940910FACF11241FBECFEFE6
:10013000D1E2DEBFCDBF00E00CBFE4EEF0E041E075
:1001400019C0B791A79137912791079107FD0EC06C
:1001500097918791EF01F92FE82F0BBF07900D9230
:10016000A217B307D9F7FE011BBE04C01D92A21748
:10017000B307E1F7ED30F40721F70E945E0D0C9410
:06018000C100F894FFCF5E
:100186003132334134353642373839432A30234405
:060196007478007278008D
:05019C0049444C450040
:1001A2002F923F924F926F927F928F929F92AF9235
:1001B200BF92CF92DF92EF92FF920F931F93CF9352
:1001C200DF93CDB7DEB72B970FB6F894DEBF0FBE25
:1001D200CDBF7C0149875A876B873D832C8310E012
:1001E200A0E89C014A2F265E3F4F4F4F2E833F834C
:1001F20048871C014A2E3BE1230E311C411C3C0165
:1002020048E0640E711CD62C972C80E8882E57018A
:10021200E1E1AE0EB11CF0E8CF2E0FB6F8940F92CA
:10022200F701928D838D981720F0023009F06FC08C
:1002320095C1F701248D21110EC0F70180819181B2
:10024200892B09F04EC0828193810E949712F70197
:100252001382128246C001111BC030E049855A85C3
:100262006B85F701848195810E945414F701248DD6
:1002720084819581820F911D9583848322813381AC
:100282008217930770F1808191819583848329C0BD
:1002920030E049855A856B85F701868197810E94F6
:1002A2005414F701848D90E09195819591092681EE
:1002B2003781280F391F37832683408151812417C4
:1002C200350730F422813381820F931F978386830F
:1002D200023039F4F701828D882319F0828D815022
:1002E200828FF701828D8F5F828F8189882359F0F7
:1002F200F1E1EF0EF11CB70180E80E94C7118130D5
:1003020011F40E9409100F900FBE81E02DC18C8163
:100312009D81892B21F40F900FBE80E025C1111120
:1003220005C0CE0101960E94DE1411E00F900FBEAF
:100332000E9457150FB6F8940F92F701858D8F3FE3
:1003420009F4158EF701868D8F3F09F4168E0F90F2
:100352000FBEBE016C5F7F4FCE0101960E945C1200
:100362008111A7C00FB6F8940F92EE81FF815885D4
:100372000E944915862F0F900FBEF101542D0E9445
:100382004915861350C06C817D818D2D992D0E9457
:100392006A100FB6F8940F92F701868D1816B4F40E
:1003A2008189811105C012C0F7018189882371F00A
:1003B2008C2DB5010E94C71181110E946C15F701A5
:1003C200868D8150868F868D181674F38FEFF70114
:1003D200868F0F900FBE0FB6F8940F92858D181668
:1003E200B4F48085811105C012C0F701808588238D
:1003F20071F0882DB3010E94C71181110E946C1502
:10040200F701858D8150858F858D181674F38FEFD6
:10041200F701858F0F900FBE0E943F068111FDCE1E
:100422000E940910FACE0FB6F8940F92F701868D4A
:100432001816B4F48189811105C012C0F7018189AF
:10044200882371F08C2DB5010E94C71181110E9481
:100452006C15F701868D8150868F868D181674F380
:100462008FEFF701868F0F900FBE0FB6F8940F92A1
:10047200858D1816B4F48085811105C012C0F7016C
:100482008085882371F0882DB3010E94C7118111E4
:100492000E946C15F701858D8150858F858D181608
:1004A20074F38FEFF701858F0F900FBE0E943F0606
:1004B200B4CE0FB6F8940F92F701868D1816ECF4AD
:1004C2008189811106C019C0F7018189811107C094
:1004D20014C03701F1E16F0E711C20E8822E882DC5
:1004E200B3010E94C71181110E946C15F701868D1C
:1004F2008150868F868D18163CF38FEFF701868F19
:100502000F900FBE0FB6F8940F92858D1816ECF46B
:100512008085811106C019C0F7018085811107C04D
:1005220014C03701F8E06F0E711C20E8822E882D6E
:10053200B3010E94C71181110E946C15F701858DCC
:100542008150858F858D18163CF38FEFF701858FCB
:100552000F900FBE0E943F0680E006C0F701248D77
:10056200222309F46ACE94CE2B960FB6F894DEBFFE
:100572000FBECDBFDF91CF911F910F91FF90EF90F2
:10058200DF90CF90BF90AF909F908F907F906F90B1
:080592004F903F902F90089557
:10059A002F923F924F925F926F927F928F929F9289
:1005AA00AF92BF92CF92DF92EF92FF920F931F9377
:1005BA00CF93DF93CDB7DEB727970FB6F894DEBF98
:1005CA000FBECDBF8C017F836E835D834C83522E19
:1005DA00F12C99249394A0E81C014A2E2AE1220EB8
:1005EA00311C411C3C0188E0680E711CE0E88E2E2B
:1005FA006801F1E1CF0ED11CAC2CBD2C20E8E22E13
:10060A000FB6F8940F92F801828D882309F44DC031
:10061A00E680F780808191810097B1F0248D30E0E7
:10062A00A701420F531F578346836281738146177E
:10063A00570710F097838683F8014681578160E84F
:10064A008E819F810E94541451101CC0F801828D22
:10065A008150828F80819181892B29F40E946315B0
:10066A00F80193838283F80180858823D1F0B80149
:10067A00685F7F4F80E80E94C711813091F40E9421
:10068A0009100FC0F801F782E6828189882349F0B0
:10069A00B8016F5E7F4F80E80E94C71181110E94E6
:1006AA0009100F900FBE81E02EC18C819D81892B8C
:1006BA0021F40F900FBE80E026C1F11005C0CE01D3
:1006CA0001960E94DE14F92C0F900FBE0E94571556
:1006DA000FB6F8940F92F801858D8F3F09F4158EA5
:1006EA00F801868D8F3F09F4168E0F900FBEBE015A
:1006FA006C5F7F4FCE0101960E945C128111AFC0E0
:10070A000FB6F8940F92F101542D0E9449150F90DB
:10071A000FBE61115EC0F80180819181892B49F475
:10072A000FB6F8940F92828193810E94A70F0F90BF
:10073A000FBE6C817D818A2D9B2D0E946A100FB697
:10074A00F8940F92F801868D1816B4F481898111F4
:10075A0005C012C0F8018189882371F08E2DB60177
:10076A000E94C71181110E946C15F801868D815073
:10077A00868F868D181674F38FEFF801868F0F9087
:10078A000FBE0FB6F8940F92858D1816B4F48085B3
:10079A00811105C012C0F8018085882371F0882D67
:1007AA00B3010E94C71181110E946C15F801858D51
:1007BA008150858F858D181674F38FEFF801858F18
:1007CA000F900FBE0E943F0681111ACF0E94091096
:1007DA0017CF0FB6F8940F92F801868D1816B4F455
:1007EA008189811105C012C0F8018189882371F0BD
:1007FA008E2DB6010E94C71181110E946C15F80155
:10080A00868D8150868F868D181674F38FEFF801C6
:10081A00868F0F900FBE0FB6F8940F92858D18161B
:10082A00B4F48085811105C012C0F801808588233F
:10083A0071F0882DB3010E94C71181110E946C15B5
:10084A00F801858D8150858F858D181674F38FEF89
:10085A00F801858F0F900FBE0E943F06D1CE0FB6CA
:10086A00F8940F92F801868D1816ECF4818981119B
:10087A0006C019C0F8018189811107C014C0680136
:10088A00F1E1CF0ED11C20E8E22E8E2DB6010E9496
:10089A00C71181110E946C15F801868D8150868FCF
:1008AA00868D18163CF38FEFF801868F0F900FBED6
:1008BA000FB6F8940F92858D1816ECF48085811185
:1008CA0006C019C0F8018085811107C014C06801EB
:1008DA00F8E0CF0ED11C20E8E22E8E2DB6010E9440
:1008EA00C71181110E946C15F801858D8150858F81
:1008FA00858D18163CF38FEFF801858F0F900FBE88
:10090A000E943F0680E027960FB6F894DEBF0FBE1E
:10091A00CDBFDF91CF911F910F91FF90EF90DF90A4
:10092A00CF90BF90AF909F908F907F906F905F9085
:08093A004F903F902F900895AB
:100942009F92AF92BF92CF92DF92EF92FF920F935C
:100952001F93CF93DF93009709F47EC12091751AFC
:100962002F5F2093751AC091691AD0916A1AC80F25
:10097200D91F80916F1A9091701A02960E94931358
:10098200E0916F1AF091701AD383C2838091691A31
:1009920090916A1AC817D90768F460916F1A70911A
:1009A200701A80916B1A90916C1A6E5F7F4F0E9441
:1009B200051317C060916F1A7091701A80916D1AA9
:1009C20090916E1A6E5F7F4F0E9405138091671A95
:1009D2009091681AC817D90720F4D093681AC09367
:1009E200671A0FB6F8940F928091751A815080930E
:1009F200751A8091751A811128C180917C1A811112
:100A020033C026C1D7011596ED91FC911697C68188
:100A1200D781CE010C960E9493138E010E5F1F4F59
:100A2200C8010E9493138E8990917B1A981710F433
:100A320080937B1A90E09C01220F331F220F331FF9
:100A4200220F331F820F931FB801895F954E0E94B8
:100A5200DD13E0916F1AF091701A9E8986899817BA
:100A620058F0D092781A08C00F2EF4E3EF2EFAE174
:100A7200FF2EF02DDD24D394F70180818111C2CFA6
:100A82008091791A882309F4D8C08091791A882331
:100A920009F4D3C0912CBB24B394CC24CA94DC2C8B
:100AA2008091751A8111AFC08091691A90916A1A6A
:100AB200019690936A1A8093691AE090691AF090ED
:100AC2006A1AE114F10489F580916D1A90916E1AF7
:100AD20020916B1A30916C1A30936E1A20936D1A12
:100AE20090936C1A80936B1A8091771A8F5F809320
:100AF200771AE0916D1AF0916E1A8081811105C00A
:100B0200D092681AC092671A10C0E0916D1AF091E3
:100B12006E1A0580F681E02D0680F781E02D828134
:100B220093819093681A8093671A8091671A9091C3
:100B3200681AE816F90610F4A92C4FC0A92CE09106
:100B42006D1AF0916E1A8081811105C0D092681AD7
:100B5200C092671A42C0E0916D1AF0916E1A058038
:100B6200F681E02DC681D7818A819B81E816F9063C
:100B720028F49093681A8093671A2FC08E010E5F33
:100B82001F4FC8010E9493138C899D89892B21F0E4
:100B9200CE010C960E9493138E8990917B1A98171E
:100BA20010F480937B1A90E09C01220F331F220FD6
:100BB200331F220F331F820F931FB801895F954E97
:100BC2000E94DD13E0916F1AF091701A9E89868956
:100BD200981708F4B4CFAB2CB2CFE0916F1AF09112
:100BE200701A868990E0FC01EE0FFF1FEE0FFF1FC7
:100BF200EE0FFF1F8E0F9F1FFC01E95FF54E8081F4
:100C0200823068F50AC08091791A8F5F8093791AD1
:100C12008091781A882341F005C08091781A811159
:100C220001C0A110B092781A8091791A81508093F4
:100C3200791A8091791A811133CF8091781A813093
:100C420031F40E94091081E003C080E001C080E01D
:100C52000F900FBE811106C00E94091003C080913F
:100C6200781AE0CFDF91CF911F910F91FF90EF9013
:0C0C7200DF90CF90BF90AF909F9008954E
:100C7E009F92AF92BF92CF92DF92EF92FF920F931D
:100C8E001F93CF93DF930FB6F8940F928091751A3E
:100C9E0081508093751A8091751A811128C18091A7
:100CAE007C1A811133C026C1D7011596ED91FC91A6
:100CBE001697C681D781CE010C960E9493138E0192
:100CCE000E5F1F4FC8010E9493138E8990917B1A5D
:100CDE00981710F480937B1A90E09C01220F331F1B
:100CEE00220F331F220F331F820F931FB801895F0C
:100CFE00954E0E94DD13E0916F1AF091701A9E8945
:100D0E008689981758F0D092781A08C00F2EF4E3FF
:100D1E00EF2EFAE1FF2EF02DDD24D394F701808122
:100D2E008111C2CF8091791A882309F4D8C080919D
:100D3E00791A882309F4D3C0912CBB24B394CC2404
:100D4E00CA94DC2C8091751A8111AFC08091691AFA
:100D5E0090916A1A019690936A1A8093691AE0909C
:100D6E00691AF0906A1AE114F10489F580916D1AEE
:100D7E0090916E1A20916B1A30916C1A30936E1AF4
:100D8E0020936D1A90936C1A80936B1A8091771A38
:100D9E008F5F8093771AE0916D1AF0916E1A8081B1
:100DAE00811105C0D092681AC092671A10C0E091E6
:100DBE006D1AF0916E1A0580F681E02D0680F7818E
:100DCE00E02D828193819093681A8093671A8091A7
:100DDE00671A9091681AE816F90610F4A92C4FC0FC
:100DEE00A92CE0916D1AF0916E1A8081811105C0C7
:100DFE00D092681AC092671A42C0E0916D1AF091B3
:100E0E006E1A0580F681E02DC681D7818A819B817D
:100E1E00E816F90628F49093681A8093671A2FC083
:100E2E008E010E5F1F4FC8010E9493138C899D89FE
:100E3E00892B21F0CE010C960E9493138E899091EE
:100E4E007B1A981710F480937B1A90E09C01220F66
:100E5E00331F220F331F220F331F820F931FB80130
:100E6E00895F954E0E94DD13E0916F1AF091701A12
:100E7E009E898689981708F4B4CFAB2CB2CFE09137
:100E8E006F1AF091701A868990E0FC01EE0FFF1F29
:100E9E00EE0FFF1FEE0FFF1F8E0F9F1FFC01E95F6E
:100EAE00F54E8081823048F50AC08091791A8F5FA5
:100EBE008093791A8091781A811106C007C08091AB
:100ECE00781A811101C0A110B092781A8091791A06
:100EDE0081508093791A8091791A811133CF809144
:100EEE00781A813031F40E94091081E003C080E04D
:100EFE0001C080E00F900FBE03C08091781AE4CF3E
:100F0E00DF91CF911F910F91FF90EF90DF90CF90D7
:080F1E00BF90AF909F90089571
:100F26002F923F924F925F926F927F928F92AF92E3
:100F3600BF92CF92DF92EF920F931F93CF93DF93DF
:100F46001F921F92CDB7DEB79A8389833A01862E08
:100F56002901180182E290E00E94CB088C010097DB
:100F660009F402C1A114B10409F0F9C0C2010E943A
:100F7600CB08F801908F878B009721F4C8010E9457
:100F8600CF0EF2C0A20165EA70E00E945015F1E0B2
:100F96004F1A5108F8018789908D480E591EF301A2
:100FA600582D0E944915F801618FF301582D0E94B2
:100FB60049156623F9F09801265E3F4FA82DC30117
:100FC6000196A11DF8E06F0E711C811CFC015A2FC1
:100FD6000E944915F90161939F01E82FF92F5A2FB5
:100FE6000196A11D0E944915662321F086159705D5
:100FF600A80561F7F80110A28E2CF3E0FE1520F487
:101006000F2EF3E08F2EF02DF801868A81A258016B
:10101600F2E0AF0EB11CC5010E946815C8010C961E
:101026000E946815F8011187008784E090E088190E
:10103600910995878487138B028BA10169817A8137
:10104600C2010E945D0EF80191838083C114D10410
:1010560019F0F601118300830FB6F8940F92809170
:101066007C1A8F5F80937C1A80916F1A9091701A08
:10107600892BA9F51093701A00936F1A80917C1A28
:101086008130E1F587E09AE10E94B61480E19AE1A9
:101096000E94B61489E19AE10E94B61482E29AE1AE
:1010A6000E94B61486E49AE10E94B6148DE39AE192
:1010B6000E94B61484E39AE10E94B6148BE29AE188
:1010C6000E94B61486E49AE190936E1A80936D1A84
:1010D6008DE39AE190936C1A80936B1A0FC08091FE
:1010E6007A1A81110BC0E0916F1AF091701A8689F5
:1010F600E81620F01093701A00936F1A8091761AF2
:101106008F5F8093761AF801868990917B1A9817DB
:1011160010F480937B1A90E09C01220F331F220F5C
:10112600331F220F331F820F931FB501895F954E20
:101136000E94DD130F900FBE80917A1A882359F012
:10114600E0916F1AF091701A86898E1530F40E941C
:10115600091081E00AC081E008C081E006C0FC01F8
:10116600B08EA78AC5010ECF8FEF0F900F90DF913B
:10117600CF911F910F91EF90DF90CF90BF90AF90DE
:101186008F907F906F905F904F903F902F90089533
:10119600EF92FF920F931F93CF93DF93EC010E9480
:1011A60057158091611A9091621A892B79F5E7E5B6
:1011B600FAE188E092E09183808313821282E3E071
:1011C600FAE1F093621AE093611AA7E0B2E0109296
:1011D600061A1092051A118210828BEF97E1149667
:1011E6009C938E9313971296FC93EE93119780918E
:1011F6005F1A9091601A04979093601A80935F1A11
:1012060080E090E890935C1A80935B1A80915B1A59
:1012160090915C1A8C239D23892B09F0B2C02097EC
:1012260009F4B2C0AE014C5F5F4F09F4B0C08091C3
:101236005F1A9091601A8417950708F4ABC0E09185
:10124600571AF091581AA7E5BAE102C0DF01F90171
:10125600228133812417350728F420813181211515
:101266003105A1F76091611A7091621AE617F707C6
:1012760009F493C0CD91DC9111977E0184E0E80ECC
:10128600F11C808191818D939C9382819381841B33
:10129600950B8930910508F452C09F01240F351F24
:1012A600D90113969C938E93129753834283A7E595
:1012B600BAE101C0DC018D919C91119782179307C9
:1012C600C8F312964D915C9113978D01040F151F6B
:1012D6002017310751F4E9012A813B81420F531F40
:1012E60013965C934E9312979D01E9014A815B81A7
:1012F6008901040F151F80179107C9F4601771073C
:1013060091F0E8018A819B81480F591FE9015B83AF
:101316004A838D919C911197EC0188819981E9010D
:101326009983888307C0E9017983688303C0E9014B
:1013360099838883A217B30711F02D933C932281DA
:10134600338180915F1A9091601A821B930B909360
:10135600601A80935F1A40915D1A50915E1A841745
:10136600950720F490935E1A80935D1A80915B1A1C
:1013760090915C1A282B392B338322831182108299
:101386000EC0E12CF12C0BC0E12CF12C08C0E12C95
:10139600F12C05C0E12CF12C02C0E12CF12C0E94AD
:1013A6003F06C701DF91CF911F910F91FF90EF90FC
:0213B600089598
:1013B800CF92DF92EF920F931F93CF93DF9382E246
:1013C80090E00E94CB08EC01892B09F4D5C085E593
:1013D80090E00E94CB08988F8F8B009721F4CE0164
:1013E8000E94CF0EC9C045E550E065EA70E00E9452
:1013F80050150F89188D0C5A1F4F89E4898F8DE974
:1014080091E0A0E09E01265E3F4F0F2EF4EACF2E1A
:10141800F1E0DF2EF0E0EF2EF02DFC015A2F0E94B4
:1014280049150196A11DF90161939F01662321F0D9
:101438008C159D05AE0589F718A21E8A19A26E01A2
:10144800F2E0CF0ED11CC6010E946815CE010C96A1
:101458000E946815D987C88784E090E09D878C87AB
:10146800DB8BCA8B40E050E06DE870E0C8010E9459
:101478005D0E998388830FB6F8940F9280917C1A39
:101488008F5F80937C1A80916F1A9091701A892BC4
:10149800A9F5D093701AC0936F1A80917C1A813085
:1014A800E1F587E09AE10E94B61480E19AE10E9492
:1014B800B61489E19AE10E94B61482E29AE10E9488
:1014C800B61486E49AE10E94B6148DE39AE10E946C
:1014D800B61484E39AE10E94B6148BE29AE10E9462
:1014E800B61486E49AE190936E1A80936D1A8DE390
:1014F8009AE190936C1A80936B1A0FC080917A1AB4
:1015080081110BC0E0916F1AF091701A86898111D0
:1015180004C0D093701AC0936F1A8091761A8F5FA7
:101528008093761A8E8990917B1A981710F480937D
:101538007B1A90E09C01220F331F220F331F220FCA
:10154800331F820F931FB601895F954E0E94DD13EA
:101558000F900FBE80917A1A882321F080916F1A1C
:101568009091701AF89481E080937A1A10926A1A0E
:101578001092691A0E941312DF91CF911F910F9157
:08158800EF90DF90CF90089571
:10159000CF92DF92EF92FF920F931F93CF93DF933F
:1015A0008091751A8111B7C08091691A90916A1A59
:1015B000019690936A1A8093691AE090691AF090E4
:1015C0006A1AE114F10499F580916D1A90916E1ADE
:1015D00020916B1A30916C1A30936E1A20936D1A09
:1015E00090936C1A80936B1A8091771A8F5F809317
:1015F000771AE0916D1AF0916E1A8081811107C0FF
:101600008FEF9FEF9093681A8093671A10C0E09154
:101610006D1AF0916E1A0580F681E02D0680F78133
:10162000E02D828193819093681A8093671A80914C
:10163000671A9091681AE816F90610F4D12C53C075
:10164000D12CCC24C394E0916D1AF0916E1A808154
:10165000811107C08FEF9FEF9093681A8093671AEC
:1016600042C0E0916D1AF0916E1A0580F681E02D6E
:10167000C681D7818A819B81E816F90628F4909368
:10168000681A8093671A2FC08E010E5F1F4FC80122
:101690000E9493138C899D89892B21F0CE010C9691
:1016A0000E9493138E8990917B1A981710F480935F
:1016B0007B1A90E09C01220F331F220F331F220F51
:1016C000331F820F931FB801895F954E0E94DD136F
:1016D000E0916F1AF091701A9E898689981708F424
:1016E000B2CFDC2CB0CFE0916F1AF091701A8689DE
:1016F00090E0FC01EE0FFF1FEE0FFF1FEE0FFF1F2C
:101700008E0F9F1FFC01E95FF54E8081823048F00B
:10171000DD24D39406C08091791A8F5F8093791A63
:10172000D12C8091781A882311F0DD24D3948D2D4B
:10173000DF91CF911F910F91FF90EF90DF90CF90AD
:0217400008950A
:10174200CF93C82F662331F08091801A81608093F5
:10175200801A05C08091801A8E7F8093801A8091B2
:10176200801A8D7F8093801A6091801A80E00E9497
:1017720080148091801A8F778093801A8091801ACA
:101782008F7B8093801A8091801A8F7D8093801A3C
:101792008091801A8F7E8093801ACC232CF48091C2
:1017A200801A80688093801AC6FF05C08091801AD3
:1017B20080648093801AC5FF05C08091801A806280
:1017C2008093801AC4FF05C08091801A8061809343
:1017D200801A6091801A80E00E9480140E94FF1497
:1017E2008091801A8F778093801A8091801A8F7BE4
:1017F2008093801A8091801A8F7D8093801A8091C5
:10180200801A8F7E8093801AC3FF05C08091801A50
:1018120080688093801AC2FF05C08091801A80641C
:101822008093801AC1FF05C08091801A80628093E4
:10183200801AC0FF05C08091801A80618093801A4F
:101842006091801A80E00E9480140E94FF148091AF
:10185200801A80618093801A8091801A80628093BE
:10186200801A8091801A80648093801A8091801AF5
:1018720080688093801A6091801A80E00E948014B0
:04188200CF91089565
:101886002FEF90EF3FEE4FED5FEB6FE728B997B97B
:101896000000000088B18F7088B90000000086B192
:1018A6008F708093010286B18F3009F479C0E7EA20
:1018B600F1E63197F1F700C0000038B9000086B1B3
:1018C6008F70809301028F3019F01092000224C0AD
:1018D60048B9000086B18F70809301028F3021F0E5
:1018E60081E08093000218C058B9000086B18F705D
:1018F600809301028F3021F082E0809300020CC0B9
:1019060068B9000086B18F70809301028F3009F4A8
:10191600BDCF83E080930002809101028E3061F496
:101926008091000290E0A0E08A579E4FAF4FFC01E5
:101936005A2F0E94491535C08D3079F480910002E6
:1019460090E00496092E000CAA0B8A579E4FAF4FC3
:10195600FC015A2F0E94491524C08B3079F48091DE
:10196600000290E00896092E000CAA0B8A579E4F9B
:10197600AF4FFC015A2F0E94491513C0873079F4E6
:101986008091000290E00C96092E000CAA0B8A5753
:101996009E4FAF4FFC015A2F0E94491502C0089571
:0619A60060E0862F0895A9
:1019AC008091751A882321F081E08093781A08952C
:1019BC001092781AA0916F1AB091701AE0916F1A68
:1019CC00F091701A2D913C918789908D8217930715
:1019DC0060F060916F1A7091701A80916F1A9091EB
:1019EC00701A675E7F4F0E94C41480917B1A90E03E
:1019FC00FC01EE0FFF1FEE0FFF1FEE0FFF1F8E0FF0
:101A0C009F1FFC01E95FF54E8081811117C0809109
:101A1C007B1A815080937B1A80917B1A90E0FC0199
:101A2C00EE0FFF1FEE0FFF1FEE0FFF1F8E0F9F1FFE
:101A3C00FC01E95FF54E8081882349F380917B1A84
:101A4C0090E09C01220F331F220F331F220F331FF4
:101A5C00280F391FD901A95FB54E1196ED91FC9154
:101A6C0012970280F381E02D1296FC93EE9311975E
:101A7C00265F354EE217F30729F422813381FD01ED
:101A8C0032832183FC01EE0FFF1FEE0FFF1FEE0FC1
:101A9C00FF1F8E0F9F1FFC01E95FF54E0180F28145
:101AAC00E02D868197819093701A80936F1A089518
:101ABC00AF92BF92CF92DF92EF920F931F93CF937F
:101ACC00DF93CDB7DEB728970FB6F894DEBF0FBE05
:101ADC00CDBF87E690E00E94E9148DE00E9475115D
:101AEC0088E0EFE4FAE1AE014F5F5F4FDA0101905D
:101AFC000D928A95E1F760E880E00E9436130E940F
:101B0C00741580917F1A0E946D1460917D1A8091DA
:101B1C007E1A0E94131540E062E080E10E941F11C2
:101B2C009093741A8093731A40E062E080E10E94F3
:101B3C001F119093721A8093711A86E991E0A0E0BC
:101B4C00AC0160E81F921F921F92A12CB12CC12CEA
:101B5C00D12C6894EE24E1F800E010E020E034E0B1
:101B6C008FEC92E10E94930789E991E0A0E0AC012F
:101B7C0060E81F921F921F92EE24E39420E034E061
:101B8C0085EC90E10E9493070E94DC090F900F9066
:101B9C000F900F900F900F9080E090E028960FB66A
:101BAC00F894DEBF0FBECDBFDF91CF911F910F9187
:0C1BBC00EF90DF90CF90BF90AF900895A5
:101BC8000F920FB6F8940F920BB60F920CB60F92B5
:101BD8001F9211242F923F924F925F926F927F92A1
:101BE8008F929F92AF92BF92CF92DF92EF92FF9225
:101BF8000F931F932F933F934F935F936F937F930D
:101C08008F939F93AF93BF93CF93DF93EF93FF93FC
:101C1800A0916F1AB091701A0DB60D920EB60D9272
:101C28008091631A9091641A01979093641A809333
:101C3800631A892B51F40E941F148091651A9091A0
:101C4800661A9093641A8093631A0E94C80A8111D5
:101C58000E94D60CA0916F1AB091701ACD91CDBF89
:101C6800DD91DEBFFF91EF91DF91CF91BF91AF91F1
:101C78009F918F917F916F915F914F913F912F919C
:101C88001F910F91FF90EF90DF90CF90BF90AF9092
:101C98009F908F907F906F905F904F903F902F9084
:101CA8001F900F900CBE0F900BBE0F900FBE0F90A1
:021CB80008958D
:101CBA0031E1FC013083319722E220833197A3E39B
:101CCA00A08331976083319770833197108231975F
:101CDA001082319760E860833197108231971082C1
:101CEA0031971082319762E06083319763E06083B5
:101CFA00319764E06083319765E06083319766E0ED
:101D0A006083319767E06083319768E06083319739
:101D1A0069E06083319760E160833197308331975E
:101D2A0032E13083319733E13083319734E13083C4
:101D3A00319735E13083319736E13083319737E196
:101D4A003083319738E13083319739E130833197E5
:101D5A0030E23083319731E23083319720833197F3
:101D6A0023E220833197408331975083319726E2CB
:101D7A002083319727E22083319728E22083319705
:101D8A0029E22083319720E32083319721E32083BE
:041D9A008997089588
:101D9E00CF93DF93009709F468C0FC01349722813A
:101DAE00338140915B1A50915C1AB90164237523FB
:101DBE00672B09F45AC060817181672B09F055C0F9
:101DCE00EF014095509524233523338322830E94BF
:101DDE0057154A815B8180915F1A9091601A840F2A
:101DEE00951F9093601A80935F1AE7E5FAE101C0A0
:101DFE00FC01808191818C179D07D0F32281338164
:101E0E00BF01620F731FC617D70729F4240F351FA2
:101E1E0033832283EF012A813B81DE01A20FB31FA0
:101E2E008A179B07C9F48091611A9091621AA817BC
:101E3E00B90779F012968D919C911397280F391F3F
:101E4E003B832A83A081B1818D919C919983888354
:101E5E0005C0B983A88302C099838883EC17FD0758
:101E6E0011F0D183C0830E943F06DF91CF91089578
:101E7E00CF93882331F08091801A81608093801AED
:101E8E0005C08091801A8E7F8093801A8091801A6F
:101E9E0082608093801A6091801A80E00E94801484
:101EAE0062E080E00E94781500C064E080E00E944D
:101EBE003B14811102C0C0E101C0C0E065E080E0CA
:101ECE000E943B14811101C0C06266E080E00E9456
:101EDE003B14811101C0C06467E080E00E943B1496
:101EEE00811101C0C06862E080E00E947C1500C0D4
:101EFE0062E080E00E94781500C064E080E00E94FD
:101F0E003B14811101C0C16065E080E00E943B146A
:101F1E00811101C0C26066E080E00E943B14811115
:101F2E0001C0C46067E080E00E943B14811101C0D3
:101F3E00C86062E080E00E947C158C2FCF910895DE
:101F4E000F931F93CF93DF93FC01892B09F455C098
:101F5E002689A0916F1AB091701A56968C912817F7
:101F6E0008F04BC084859585992364F0A0916F1A73
:101F7E00B091701A56963C9184E090E0831B9109C3
:101F8E009587848730E0C901880F991F880F991FA4
:101F9E00880F991F280F391F295F354E828593852B
:101FAE008217930719F58F01EF012296CE010E9439
:101FBE009313E0916F1AF091701A8689F801868B4F
:101FCE0090917B1A981710F480937B1A90E09C01E5
:101FDE00220F331F220F331F220F331F820F931F27
:101FEE00BE01895F954E0E94DD1307C0A0916F1A46
:101FFE00B091701A56968C91868BDF91CF911F916E
:04200E000F91089591
:102012000F920FB6F8940F920BB60F920CB60F9266
:102022001F9211242F923F924F925F926F927F9252
:102032008F929F92AF92BF92CF92DF92EF92FF92D6
:102042000F931F932F933F934F935F936F937F93BE
:102052008F939F93AF93BF93CF93DF93EF93FF93AE
:10206200A0916F1AB091701A0DB60D920EB60D9224
:102072000E94D60CA0916F1AB091701ACD91CDBF6B
:10208200DD91DEBFFF91EF91DF91CF91BF91AF91D3
:102092009F918F917F916F915F914F913F912F917E
:1020A2001F910F91FF90EF90DF90CF90BF90AF9074
:1020B2009F908F907F906F905F904F903F902F9066
:1020C2001F900F900CBE0F900BBE0F900FBE0F9083
:0220D20008956F
:1020D400CF93DF93EB0160916F1A7091701A645F74
:1020E4007F4F0E94051380916F1A9091701A029687
:1020F4000E949313CF3F8FEFD80759F460916F1A62
:102104007091701A6E5F7F4F8BE29AE10E94DD132B
:1021140037C08091691A90916A1AC80FD91FE0914B
:102124006F1AF091701AD383C2838091691A9091C7
:102134006A1AC817D90768F460916F1A7091701AF7
:1021440080916B1A90916C1A6E5F7F4F0E940513F9
:1021540017C060916F1A7091701A80916D1A9091E6
:102164006E1A6E5F7F4F0E9405138091671A9091DB
:10217400681AC817D90720F4D093681AC093671A4D
:06218400DF91CF910895E8
:10218A00CF93DF931F921F92CDB7DEB711E020E005
:10219A0044E650E0BE016F5F7F4F8091731A9091C1
:1021AA00741A0E94CD02882321F0898181110E942C
:1021BA00411520E042E350E0BE016E5F7F4F8091FF
:1021CA00711A9091721A0E94CD02882371F18A8144
:1021DA00882359F18D3049F410927D1A10927E1A93
:1021EA0060E080E00E94131520C0843029F4109228
:1021FA007E1A10927D1A19C00E94B91380917E1A14
:10220A00843120F48F5F80937E1A0FC0833149F4A2
:10221A0080917D1A811105C010927E1A10937D1A41
:10222A0004C010927E1A10927D1A88EC90E00E94E7
:04223A00A104ADCF7F
:10223E00CF92DF92EF92FF920F931F93CF93DF9384
:10224E00882309F43FC0E62EF82E8FE190E00E941D
:10225E00CB08EC01892BC1F1CE2CD12CFC9C80013A
:10226E00FD9C100D1124C80101960E94CB08998384
:10227E008883009709F1FB8EEC8E0FB6F8940F92BF
:10228E009C01200F311F3B832A831A8E9D838C83E2
:10229E000C191D09080F191F1F830E838FEF8D8FC9
:1022AE008E8FCE0108960E94B614CE0141960E94E2
:1022BE00B6140F900FBE08C0CE010E94CF0EC0E024
:1022CE00D0E002C0C0E0D0E0CE01DF91CF911F91EF
:0C22DE000F91FF90EF90DF90CF900895DB
:1022EA001F93CF93DF93182F0E942F151092801AF5
:1022FA006091801A80E00E94801480E09AEF019732
:10230A00F1F78091801A80628093801A8091801AF6
:10231A0080618093801A6091801A80E00E94801404
:10232A000E94FF1480E09EE40197F1F70E94FF14D7
:10233A00C0E0D1E0CE010197F1F70E94FF14CE016F
:10234A000197F1F78091801A8F7E8093801A6091AD
:10235A00801A80E00E9480140E94FF142197F1F7EE
:10236A0088E20E94091588E00E9409150E947015EA
:10237A0086E00E940915812F0E940915DF91CF91ED
:04238A001F91089502
:10238E000F931F93CF93DF93A82FCB010596A11D1B
:10239E00FC015A2F0E943815FB01C681D7818E0190
:1023AE00045F1F4FC8010E9493138091751A81110B
:1023BE001CC00A501109C8010E9493138E89909176
:1023CE007B1A981710F480937B1A90E09C01220FD1
:1023DE00331F220F331F220F331F820F931FB8019B
:1023EE00895F954E0E94DD1305C0B80184E39AE122
:1023FE000E94DD13E0916F1AF091701A9E89868902
:10240E00891720F481E08093781A01C080E0DF9173
:08241E00CF911F910F91089569
:1024260084EF91E09093661A8093651A9093641AEC
:102436008093631A81E08093990083EF80939800DC
:102446008BE080939100E1E7F0E0808182608083F9
:10245600A0916F1AB091701ACD91CDBFDD91DEBFFC
:10246600FF91EF91DF91CF91BF91AF919F918F91A6
:102476007F916F915F914F913F912F911F910F9196
:10248600FF90EF90DF90CF90BF90AF909F908F908E
:102496007F906F905F904F903F902F901F900F907E
:1024A6000CBE0F900BBE0F900FBE0F90089581E0EB
:0224B600089587
:1024B800FC010FB6F8940F922091691A30916A1AAC
:1024C800DB018D919C918F3FBFEF9B0721F14091DC
:1024D800771A5081541729F0418152812417350702
:1024E800E0F441815281D901A41BB50BA817B907A3
:1024F800B0F4421B530B840F951FDB018D939C9303
:102508008091771A80838091691A90916A1A9283D0
:10251800818380E005C080E003C081E001C081E0E4
:062528000F900FBE0895A4
:10252E000F931F93CF93DF93009769F1FC013689C8
:10253E0021A1321741F1EC018C010E5F1F4FC80132
:10254E000E94931389A18E8B2C853D85332334F005
:10255E0024E030E0281B31093D872C8790917B1AAF
:10256E00981710F480937B1A90E09C01220F331F72
:10257E00220F331F220F331F820F931FB801895F63
:10258E00954E0E94DD13DF91CF911F910F9108950B
:10259E00CF93DF931F921F92CDB7DEB73E0122E09D
:1025AE00620E711C80E8882ECE0101966C0120E827
:1025BE00E22E0E94430C8A83882359F000E024E621
:1025CE0030E0682DA3018091731A9091741A0E94C5
:1025DE00D1000E941D158983882359F000E022E363
:1025EE0030E06E2DA6018091711A9091721A0E94A0
:0C25FE00D10084E690E00E94A104DBCF35
:10260A00CF93DF93EB01488159814F3F2FEF520758
:10261A0021F4FC01A781B0850DC0DC01139601C02D
:10262A00DF011296ED91FC911397208131814217B7
:10263A005307B0F71296ED91FC911397FB83EA8347
:10264A00D583C483BD83AC831396DC93CE93129750
:10265A0099878887FC0120812F5F2083DF91CF91A2
:02266A000895D1
:10266C006F927F928F92CF92DF92EF928830F8F434
:10267C003A01862E880F880F880F805C0E940915FE
:10268C00E82C630188E0680E711C811CF6015E2D3C
:10269C000E944915862F0E94B9138FEFC81AD80AC9
:1026AC00E80AC614D704E80489F780E001C081E089
:0E26BC00EF90DF90CF908F907F906F900895F9
:1026CA00CF93DF93811124C0683020F580910202F4
:1026DA00442349F0C1E0D0E002C0CC0FDD1F6A9567
:1026EA00E2F7C82B09C0C1E0D0E002C0CC0FDD1F61
:1026FA006A95E2F7C095C823C09302028EE40E944D
:10270A00FE138C2F0E9493140E94261580E003C0AA
:0C271A008FEF01C08FEFDF91CF91089589
:10272600CF93DF93FC01A085B185C281D3818481DB
:1027360095819D838C83C481D581828193819B837E
:102746008A8311968D919C911297E817F90731F4B7
:102756008481958112969C938E931197118610868B
:0C2766008C9181508C93DF91CF910895ED
:10277200CF93C82F0E94D114CA3049F4803410F08C
:1027820080E001C080E480580E94091513C08031A6
:1027920029F460E080EC0E94A10B06C0803521F490
:1027A20060E080E80E94A10B0E94D11461E08C2FAE
:0827B2000E94A10BCF910895D4
:1027BA00CF93DF939C01FB01DC011196CD91DC9153
:1027CA001297D383C2838C819D81958384838C8164
:1027DA009D81DC0113967C936E9312977D836C83A3
:1027EA0031872087F90180818F5F8083DF91CF91C4
:0227FA00089540
:1027FC0094EA9093BC00ECEBF0E090819923ECF719
:10280C009091B900987F983091F48093BB0084E844
:10281C008093BC00ECEBF0E080818823ECF7909186
:10282C00B900987F81E0983119F480E0089581E037
:02283C000895FD
:10283E008F938FB78F93F894809103028F5F80935D
:10284E000302809104028F4F80930402809105024F
:10285E008F4F80930502809106028F4F8093060260
:08286E008F918FBF8F91089537
:10287600CF93811111C0683088F4C62F0E94A51429
:102886008F3F69F0082E000C990B02C0959587952D
:10289600CA95E2F7817003C08FEF01C08FEFCF9129
:0228A600089593
:1028A800CF92DF92EF92DC016A01E62E280F391FE2
:1028B800A217B30751F0F6015E2D0E9449156D93DA
:1028C8004FEFC41AD40AE40AF3CFEF90DF90CF9009
:0228D800089561
:1028DA00882331F08091801A877F8093801A05C0FF
:1028EA008091801A88608093801A6091801A80E0B3
:0628FA000E948014089505
:10290000CF9381110DC0C62F609302028EE40E9406
:10291000FE138C2F0E9493140E94261580E001C0A4
:062920008FEFCF91089536
:102926008093BB0084E88093BC00ECEBF0E08081F0
:102936008823ECF79091B900987F81E0983209F4EA
:0429460080E0089590
:10294A00CF9381110AC08FE40E94FE130E94F414EF
:10295A00C82FC0950E94261501C0CFEF8C2FCF91AA
:02296A000895CE
:10296C00FC010396928381832FEF3FEF3483238303
:0C297C00968385839087878310820895DE
:10298800279A2F9A2FEF87EA91E6215080409040AE
:0A299800E1F700C000001F9AF5CF20
:1029A20080E00E943F0F8823DCF388E090E00197EB
:0A29B200F1F780E00E943F0F089546
:1029BC002091771AFC0120832091691A30916A1AB0
:0629CC003283218308950F
:1029D2009093C5008093C40088E18093C1008EE08B
:0629E2008093C20008957D
:1029E80084E88093BC00ECEBF0E080818823ECF76E
:0629F8008091BB00089570
:1029FE0062E080E00E94781500C062E080E00E94F4
:042A0E007C15089596
:102A1200CF93C82F0E94D11460E08C2F0E94A10B8B
:042A2200CF910895B3
:102A2600611104C080580E940915089580540E94BF
:042A360009150895E1
:102A3A008091C00088231CF48091C600089580E02C
:022A4A000895ED
:102A4C0084E98093BC00ECEBF0E0808184FDFDCF49
:022A5C000895DB
:102A5E000E945D1585E38A95F1F70000109202023F
:022A6E000895C9
:102A700057FD04C05BBF6791779108956191719193
:022A80000895B7
:102A8200E0ECF0E0908195FFFDCF8093C6000895C1
:0E2A920057FD03C05BBF6791089560810895F2
:0E2AA000DC0101C06D9341505040E0F70895F5
:0C2AAE008091751A8F5F8093751A08954F
:0C2ABA001092B90082E18093B8000895EA
:0A2AC60080916F1A9091701A089524
:082AD000FC0111861086089537
:082AD80081E08093781A089553
:082AE00081E00E940915089530
:082AE80082E00E940915089527
:082AF00041E00E946513089506
:082AF80040E00E9465130895FF
:062B00000E94E40D18958F
:042B06000C9400002B
:082B0A001F1F1F1F1F1F1F1FCB
:022B1200FF17AB
:022B1400FF17A9
:022B1600FFFFBF
:00000001FF
